{
  "contractName": "Covid19usecase",
  "abi": [
    {
      "inputs": [],
      "stateMutability": "nonpayable",
      "type": "constructor"
    },
    {
      "anonymous": false,
      "inputs": [
        {
          "indexed": false,
          "internalType": "uint256",
          "name": "id",
          "type": "uint256"
        },
        {
          "indexed": false,
          "internalType": "string",
          "name": "content",
          "type": "string"
        },
        {
          "indexed": false,
          "internalType": "bool",
          "name": "agree",
          "type": "bool"
        }
      ],
      "name": "ClauseCreated",
      "type": "event"
    },
    {
      "anonymous": false,
      "inputs": [
        {
          "indexed": false,
          "internalType": "uint256",
          "name": "id",
          "type": "uint256"
        }
      ],
      "name": "RequestSumbitted",
      "type": "event"
    },
    {
      "inputs": [],
      "name": "State",
      "outputs": [
        {
          "internalType": "enum Covid19usecase.contractState",
          "name": "",
          "type": "uint8"
        }
      ],
      "stateMutability": "view",
      "type": "function",
      "constant": true
    },
    {
      "inputs": [
        {
          "internalType": "uint256",
          "name": "",
          "type": "uint256"
        }
      ],
      "name": "clauses",
      "outputs": [
        {
          "internalType": "uint256",
          "name": "id",
          "type": "uint256"
        },
        {
          "internalType": "string",
          "name": "content",
          "type": "string"
        },
        {
          "internalType": "bool",
          "name": "agree",
          "type": "bool"
        }
      ],
      "stateMutability": "view",
      "type": "function",
      "constant": true
    },
    {
      "inputs": [],
      "name": "getClauseCount",
      "outputs": [
        {
          "internalType": "uint256",
          "name": "",
          "type": "uint256"
        }
      ],
      "stateMutability": "view",
      "type": "function",
      "constant": true
    },
    {
      "inputs": [
        {
          "internalType": "uint256",
          "name": "num",
          "type": "uint256"
        }
      ],
      "name": "getClause",
      "outputs": [
        {
          "internalType": "string",
          "name": "",
          "type": "string"
        }
      ],
      "stateMutability": "view",
      "type": "function",
      "constant": true
    },
    {
      "inputs": [],
      "name": "getState",
      "outputs": [
        {
          "internalType": "enum Covid19usecase.contractState",
          "name": "",
          "type": "uint8"
        }
      ],
      "stateMutability": "view",
      "type": "function",
      "constant": true
    },
    {
      "inputs": [
        {
          "internalType": "string",
          "name": "_content",
          "type": "string"
        }
      ],
      "name": "createClause",
      "outputs": [],
      "stateMutability": "nonpayable",
      "type": "function"
    },
    {
      "inputs": [
        {
          "internalType": "bool",
          "name": "agree",
          "type": "bool"
        }
      ],
      "name": "agreeClause1",
      "outputs": [],
      "stateMutability": "nonpayable",
      "type": "function"
    },
    {
      "inputs": [
        {
          "internalType": "uint256",
          "name": "id",
          "type": "uint256"
        }
      ],
      "name": "acceptClause",
      "outputs": [],
      "stateMutability": "nonpayable",
      "type": "function"
    },
    {
      "inputs": [
        {
          "internalType": "uint256",
          "name": "_id",
          "type": "uint256"
        }
      ],
      "name": "submitRequest",
      "outputs": [],
      "stateMutability": "nonpayable",
      "type": "function"
    },
    {
      "inputs": [
        {
          "internalType": "uint256",
          "name": "id",
          "type": "uint256"
        }
      ],
      "name": "getClauseStatus",
      "outputs": [
        {
          "internalType": "bool",
          "name": "",
          "type": "bool"
        }
      ],
      "stateMutability": "view",
      "type": "function",
      "constant": true
    }
  ],
  "bytecode": "0x6080604052600080553480156200001557600080fd5b50620000406040518060c00160405280609a815260200162000d91609a91396200011d60201b60201c565b6200006d60405180610240016040528061020b815260200162000e2b61020b91396200011d60201b60201c565b6200009a604051806101e001604052806101bf815260200162000bd26101bf91396200011d60201b60201c565b620000c560405180610100016040528060c881526020016200117d60c891396200011d60201b60201c565b620000f260405180610180016040528061014781526020016200103661014791396200011d60201b60201c565b6000600160006101000a81548160ff021916908360098111156200011257fe5b02179055506200030b565b6000808154809291906001019190505550604051806060016040528060005481526020018281526020016000151581525060026000805481526020019081526020016000206000820151816000015560208201518160010190805190602001906200018a92919062000265565b5060408201518160020160006101000a81548160ff0219169083151502179055509050507fa478e3ba1c41ddffd320b46a3e953ba655940caa0fbb2356f50123c1ca93368660005482600060405180848152602001806020018315158152602001828103825284818151815260200191508051906020019080838360005b838110156200022557808201518184015260208101905062000208565b50505050905090810190601f168015620002535780820380516001836020036101000a031916815260200191505b5094505050505060405180910390a150565b828054600181600116156101000203166002900490600052602060002090601f016020900481019282601f10620002a857805160ff1916838001178555620002d9565b82800160010185558215620002d9579182015b82811115620002d8578251825591602001919060010190620002bb565b5b509050620002e89190620002ec565b5090565b5b8082111562000307576000816000905550600101620002ed565b5090565b6108b7806200031b6000396000f3fe608060405234801561001057600080fd5b506004361061009e5760003560e01c806399b915aa1161006657806399b915aa1461019c578063ca6009be14610257578063e519dfdc1461030e578063f1b6dccd146103b5578063f1fbd0cb146103de5761009e565b80631865c57d146100a35780631cdd1653146100cc57806360cb989f146100fa57806368d4e5301461012a5780636c43d49014610158575b600080fd5b6100ab6103fc565b604051808260098111156100bb57fe5b815260200191505060405180910390f35b6100f8600480360360208110156100e257600080fd5b8101908080359060200190929190505050610413565b005b6101286004803603602081101561011057600080fd5b81019080803515159060200190929190505050610471565b005b6101566004803603602081101561014057600080fd5b810190808035906020019092919050505061049f565b005b6101846004803603602081101561016e57600080fd5b81019080803590602001909291905050506104d1565b60405180821515815260200191505060405180910390f35b610255600480360360208110156101b257600080fd5b81019080803590602001906401000000008111156101cf57600080fd5b8201836020820111156101e157600080fd5b8035906020019184600183028401116401000000008311171561020357600080fd5b91908080601f016020809104026020016040519081016040528093929190818152602001838380828437600081840152601f19601f8201169050808301925050505050505091929192905050506104fe565b005b6102836004803603602081101561026d57600080fd5b8101908080359060200190929190505050610641565b60405180848152602001806020018315158152602001828103825284818151815260200191508051906020019080838360005b838110156102d15780820151818401526020810190506102b6565b50505050905090810190601f1680156102fe5780820380516001836020036101000a031916815260200191505b5094505050505060405180910390f35b61033a6004803603602081101561032457600080fd5b8101908080359060200190929190505050610710565b6040518080602001828103825283818151815260200191508051906020019080838360005b8381101561037a57808201518184015260208101905061035f565b50505050905090810190601f1680156103a75780820380516001836020036101000a031916815260200191505b509250505060405180910390f35b6103bd6107c8565b604051808260098111156103cd57fe5b815260200191505060405180910390f35b6103e66107db565b6040518082815260200191505060405180910390f35b6000600160009054906101000a900460ff16905090565b6004600160006101000a81548160ff0219169083600981111561043257fe5b02179055507fbdc0810d1cedabb980fd30e01e92a884f0e56653f2cc84cde0ea897a63238afb816040518082815260200191505060405180910390a150565b801561049c576002600160006101000a81548160ff0219169083600981111561049657fe5b02179055505b50565b60016002600083815260200190815260200160002060020160006101000a81548160ff02191690831515021790555050565b60006002600083815260200190815260200160002060020160009054906101000a900460ff169050919050565b6000808154809291906001019190505550604051806060016040528060005481526020018281526020016000151581525060026000805481526020019081526020016000206000820151816000015560208201518160010190805190602001906105699291906107e4565b5060408201518160020160006101000a81548160ff0219169083151502179055509050507fa478e3ba1c41ddffd320b46a3e953ba655940caa0fbb2356f50123c1ca93368660005482600060405180848152602001806020018315158152602001828103825284818151815260200191508051906020019080838360005b838110156106025780820151818401526020810190506105e7565b50505050905090810190601f16801561062f5780820380516001836020036101000a031916815260200191505b5094505050505060405180910390a150565b6002602052806000526040600020600091509050806000015490806001018054600181600116156101000203166002900480601f0160208091040260200160405190810160405280929190818152602001828054600181600116156101000203166002900480156106f35780601f106106c8576101008083540402835291602001916106f3565b820191906000526020600020905b8154815290600101906020018083116106d657829003601f168201915b5050505050908060020160009054906101000a900460ff16905083565b6060600260008381526020019081526020016000206001018054600181600116156101000203166002900480601f0160208091040260200160405190810160405280929190818152602001828054600181600116156101000203166002900480156107bc5780601f10610791576101008083540402835291602001916107bc565b820191906000526020600020905b81548152906001019060200180831161079f57829003601f168201915b50505050509050919050565b600160009054906101000a900460ff1681565b60008054905090565b828054600181600116156101000203166002900490600052602060002090601f016020900481019282601f1061082557805160ff1916838001178555610853565b82800160010185558215610853579182015b82811115610852578251825591602001919060010190610837565b5b5090506108609190610864565b5090565b5b8082111561087d576000816000905550600101610865565b509056fea264697066735822122038df4a25d1fdc7935f63f56381650e782d3bdebe6b17709018fb7b5c4524667364736f6c634300060c0033457863657074206173207265717569726564206279206c61772c2055736572287329207368616c6c206e6f74206772616e742061636365737320746f20746865204461746120746f20616e7920746869726420706172747920776974686f757420746865207072696f72207772697474656e207065726d697373696f6e207375626d69747465642062792074686520757365727320746f2074686520446174612041636365737320436f6d6d69747465652e205573657228732920616772656520746f207265706f727420616e7920756e617574686f72697a65642061636365737320757365287329206f7220646973636c6f73757265287329206f662074686520446174612062792074686520746869726420706172747920746f2074686520446174612041636365737320436f6d6d6974746565206e6f206c61746572207468616e203220627573696e657373206461797320616674657220646973636f766572792e20546865206f6363757272656e6365206f66206120446174612041636365737320496e636964656e742069732067726f756e6420666f72207465726d696e6174696f6e206f6620616e792061636365737320746f20446174612e466f7220656163682070726f706f7365642052657365617263682050726f6a6563742c205573657228732920616772656528732920746f207375626d69742061204461746120557365205265717565737420746f2074686520446174612041636365737320436f6d6d697474656520666f722072657669657720616e6420617070726f76616c20746f206163636573732074686520446174612e5573657228732920616772656528732920746f206e6f7420617474656d707420746f20636f6e7461637420616e7920696e646976696475616c732077686f2061726520746865207375626a65637473206f662074686520446174612c20616e79206b6e6f776e206c6976696e672072656c6174697665732c20616e79204461746120436f6e7472696275746f72732c206f72206865616c7468636172652070726f76696465727320756e6c657373207265717569726564206279206c617720746f206d61696e7461696e207075626c6963206865616c746820616e64207361666574792e205573657228732920616772656520746f207265706f727420616e7920756e617574686f72697a65642061636365737320757365287329206f7220646973636c6f73757265287329206f66207468652044617461206279206f746865722075736572732028636f6c6c61626f7261746f722920746f2074686520446174612041636365737320436f6d6d6974746565206e6f206c61746572207468616e203220627573696e657373206461797320616674657220646973636f766572792e20546865206f6363757272656e6365206f66206120446174612041636365737320496e636964656e742069732067726f756e6420666f722073757370656e73696f6e206f66206669667465656e2064617973206f6620616e792061636365737320746f20446174612e5573657228732920616772656528732920746f207265636f676e697a6520746865206566666f72742074686174204461746120436f6e7472696275746f72287329206d61646520696e20636f6c6c656374696e6720616e642070726f766964696e6720746865204461746120616e6420616c6c6f772074686520666f6c6c6f77696e6720696e666f726d6174696f6e20696e2074686520617070726f766564204461746120557365205265717565737420746f206265206d616465207075626c69636c7920617661696c61626c653a206e6f6e2d636f6e666964656e7469616c2072657365617263682073746174656d656e74206f66207468652052657365617263682050726f6a6563742c2050726f6a656374205469746c652c205573657273e28099206e616d657320616e6420416363657373696e6720496e737469747574696f6e28732954686520446174612055736520526571756573742077696c6c2072656d61696e20696e2065666665637420666f72206120706572696f64206f662066697665202835292079656172732066726f6d20746865204461746120557365205265717565737420456666656374697665204461746520616e642077696c6c206175746f6d61746963616c6c79206578706972652061742074686520656e64206f66207468697320706572696f6420756e6c657373207465726d696e61746564206f722072656e657765642e",
  "immutableReferences": {},
  "source": "// SPDX-License-Identifier: MIT\r\npragma solidity ^0.6.0;\r\n\r\ncontract Covid19usecase {\r\n    uint256 clauseCount = 0;\r\n\r\n    struct Clause {\r\n        uint256 id;\r\n        string content;\r\n        bool agree;\r\n    }\r\n\r\n    enum contractState {\r\n        NotReady,\r\n        Created,\r\n        ReadyforRequireRequest,\r\n        ReadyforSubmitRequest,\r\n        ReadyforReview,\r\n        Active,\r\n        Inactive,\r\n        Aborted,\r\n        Terminate,\r\n        Expire\r\n    }\r\n\r\n    contractState public State;\r\n\r\n    constructor() public {\r\n        createClause(\r\n            \"For each proposed Research Project, User(s) agree(s) to submit a Data Use Request to the Data Access Committee for review and approval to access the Data.\"\r\n        );\r\n        createClause(\r\n            \"User(s) agree(s) to not attempt to contact any individuals who are the subjects of the Data, any known living relatives, any Data Contributors, or healthcare providers unless required by law to maintain public health and safety. User(s) agree to report any unauthorized access use(s) or disclosure(s) of the Data by other users (collaborator) to the Data Access Committee no later than 2 business days after discovery. The occurrence of a Data Access Incident is ground for suspension of fifteen days of any access to Data.\"\r\n        );\r\n        createClause(\r\n            \"Except as required by law, User(s) shall not grant access to the Data to any third party without the prior written permission submitted by the users to the Data Access Committee. User(s) agree to report any unauthorized access use(s) or disclosure(s) of the Data by the third party to the Data Access Committee no later than 2 business days after discovery. The occurrence of a Data Access Incident is ground for termination of any access to Data.\"\r\n        );\r\n        createClause(\r\n            \"The Data Use Request will remain in effect for a period of five (5) years from the Data Use Request Effective Date and will automatically expire at the end of this period unless terminated or renewed.\"\r\n        );\r\n        createClause(\r\n            \"User(s) agree(s) to recognize the effort that Data Contributor(s) made in collecting and providing the Data and allow the following information in the approved Data Use Request to be made publicly available: non-confidential research statement of the Research Project, Project Title, Users’ names and Accessing Institution(s)\"\r\n        );\r\n        State = contractState.NotReady;\r\n    }\r\n\r\n    mapping(uint256 => Clause) public clauses;\r\n\r\n    event ClauseCreated(uint256 id, string content, bool agree);\r\n\r\n    event RequestSumbitted(uint256 id);\r\n\r\n    function getClauseCount() public view returns (uint256) {\r\n        return clauseCount;\r\n    }\r\n\r\n    function getClause(uint256 num) public view returns (string memory) {\r\n        return clauses[num].content;\r\n    }\r\n\r\n    function getState() public view returns (contractState) {\r\n        return State;\r\n    }\r\n\r\n    function createClause(string memory _content) public {\r\n        clauseCount++;\r\n        clauses[clauseCount] = Clause(clauseCount, _content, false);\r\n        emit ClauseCreated(clauseCount, _content, false);\r\n    }\r\n\r\n    function agreeClause1(bool agree) public {\r\n        if (agree) {\r\n            State = contractState.ReadyforRequireRequest;\r\n        }\r\n    }\r\n\r\n    function acceptClause(uint256 id) public {\r\n        clauses[id].agree = true;\r\n    }\r\n\r\n    function submitRequest(uint256 _id) public {\r\n        State = contractState.ReadyforReview;\r\n        emit RequestSumbitted(_id);\r\n    }\r\n\r\n    function getClauseStatus(uint256 id) public view returns (bool) {\r\n        return clauses[id].agree;\r\n    }\r\n}\r\n",
  "sourcePath": "C:/Users/horown/Desktop/SCIENCE Research/contracts/Covid19usecase.sol",
  "compiler": {
    "name": "solc",
    "version": "0.6.12+commit.27d51765.Emscripten.clang"
  },
  "schemaVersion": "3.4.1",
  "updatedAt": "2021-07-15T15:25:34.641Z",
  "networkType": "ethereum",
  "devdoc": {
    "kind": "dev",
    "methods": {},
    "version": 1
  },
  "userdoc": {
    "kind": "user",
    "methods": {},
    "version": 1
  }
}